S01A0000454550524F4D5F53696D755F50726F675F492E73726563A6
S11300000C9441000C945E000C945E000C945E0011
S11300100C945E000C945E000C945E000C945E00E4
S11300200C945E000C945E000C945E000C945E00D4
S11300300C945E000C945E000C945E000C945E00C4
S11300400C945E000C945E000C945E000C945E00B4
S11300500C945E004D024F0230023202340236022A
S113006038023A023C023E024C024C024C024C0260
S11300704C024C024C024002420244024602480234
S11300804A0211241FBECFE5D8E0DEBFCDBF11E088
S1130090A0E6B0E0EAEBF0E102C005900D92A033D7
S11300A0B107D9F721E0A0E3B1E001C01D92A63A5F
S11300B0B207E1F70E94A5060C945B080C940000BB
S11300C08F98A198A0980895879B13C080913001C0
S11300D081110FC0809160008F5F8093600081E088
S11300E08093300189EF90E00197F1F700C00000A0
S11300F00895879916C080913001813091F48091E0
S11301006000811103C081E080936000109230018F
S113011089EF90E00197F1F700C0000081E080933F
S113012061000895999B21C08091310181111DC006
S11301308091320190913301A0913401B091350145
S11301400197A109B1098093320190933301A093DF
S11301503401B093350181E08093310189EF90E05F
S11301600197F1F700C00000089599990FC080919C
S11301703101813059F41092310189EF90E00197F7
S1130180F1F700C0000081E0809361000895989B1E
S113019021C08091310181111DC080913201909163
S11301A03301A0913401B09135010196A11DB11D17
S11301B08093320190933301A0933401B0933501BD
S11301C082E08093310189EF90E00197F1F700C05C
S11301D00000089598990FC080913101823059F43C
S11301E01092310181E08093610089EF90E00197E2
S11301F0F1F700C000000895811128C080913201F8
S113020090913301A0913401B09135018F3F2FEFCC
S11302109207A207B20749F41092320110923301F7
S1130220109234011092350108950697A105B10585
S113023021F585E090E0A0E0B0E080933201909356
S11302403301A0933401B093350108958130A9F4AA
S11302508091320190913301A0913401B091350124
S11302608F3F9F4FAF4FBF4F41F410923201109216
S11302703301109234011092350108950E949200C6
S11302800E94C7000E9464000E94F0070E94F507C4
S113029060E080E00E943F0782E690E00E946207EF
S11302A08091320190913301A0913401B0913501D4
S11302B082309105A105B10509F440C04CF40097C2
S11302C0A105B10599F00197A105B10519F186C001
S11302D084309105A105B10509F458C00CF442C05D
S11302E00597A105B10509F465C078C061E080E017
S11302F00E943F0783E790E00E94620780916000BC
S1130300823009F0BBCF81E0809360000E944907EE
S113031087E068C061E080E00E943F0784E890E0E5
S11303200E94620780916000823009F0A7CF81E0CB
S1130330809360000E94490784E054C061E080E03B
S11303400E943F0788E990E00E9462078091600064
S1130350823009F093CF81E0809360000E944907C6
S113036085E040C061E080E00E943F078AEA90E0B7
S11303700E94620780916000823009F07FCF81E0A3
S1130380809360000E94490782E02CC061E080E015
S11303900E943F078CEB90E00E946207809160000E
S11303A0823009F06BCF81E0809360000E9449079E
S11303B083E018C061E080E00E943F078DEC90E08C
S11303C00E94620780916000823009F057CF81E07B
S11303D0809360000E94490786E004C080E00E9488
S11303E0FC004CCF10923201109233011092340170
S11303F01092350108950E94A9070E94C9070E941E
S1130400ED0781E08093600061E080E00E943F0797
S11304108EED90E00E94620780916000813031F49B
S11304200E946400809160008130D1F310927C01BD
S1130430109232011092330110923401109235015E
S113044081E080939E0180936000089590E0FC0118
S1130450F097E731F10500F5E65DFF4F0C942008B5
S113046082E0089583E0089584E0089585E0089586
S113047086E0089587E0089588E0089589E0089566
S11304808AE008958BE008958CE008958DE0089546
S11304908EE008958FE00895089580E0089581E046
S11304A008952F923F924F925F926F927F928F9214
S11304B09F92AF92BF92CF92DF92EF92FF920F93EF
S11304C01F93CF93DF9300D01F92CDB7DEB781E0A7
S11304D0809379012FE33DE043E0215030404040D8
S11304E0E1F700C0000060E080E00E943F078DEE6D
S11304F090E00E9462071092320110923301109230
S11305003401109235010E94A607198220E00F2EB3
S1130510F8E3CF2EF1E0DF2EF02D0F2EF2E3AF2E15
S1130520F1E0BF2EF02D22242394812C912CA2C221
S113053088E390E00E941C084090320150903301FF
S113054060903401709035010E941808F201E85C53
S1130550FE4F8083D6018C91883339F5E9E3F1E0CD
S11305608081853421F5AAE3B1E08C918E3409F5BC
S1130570EBE3F1E080818434F1F4F981FF5FF983E6
S1130580F930D9F4109279010E94F00710927C019D
S113059010923201109233011092340110923501FD
S11305A081E080939E0121E009C0232D07C0232D03
S11305B005C0232D03C0232D01C0232D80913201BA
S11305C090913301A0913401B0913501AC01BD018A
S11305D04F5F5F4F6F4F7F4FFA01E85CFE4F3081F2
S11305E03A3091F0FC01E85CFE4F30813D3061F01F
S11305F04093320150933301609334017093350179
S1130600222309F495CF36C280938101909382010D
S1130610A0938301B09384010E94F0070E94F50720
S1130620109232011092330110923401109235016C
S11306301092370110923601809136019091370162
S113064040908101509082016090830170908401F8
S1130650AA2797FDA095BA2F84159505A605B70579
S11306600CF09DC0E0913601F0913701E85CFE4F3B
S113067080818A3309F07CC0E0913601F091370122
S1130680E85CFE4F81810E94260220919D0130E1A9
S1130690839FC0011124822B80939D01E091360138
S11306A0F0913701E85CFE4F82810E94260290910E
S11306B09D018F70982B90939D01E0913601F091EC
S11306C03701E85CFE4F86810E94260220917A0160
S11306D030917B018F70282B30937B0120937A011A
S11306E0E0913601F0913701E85CFE4F85810E946C
S11306F0260220917A0130917B0140E1849FC00160
S113070011249927282B392B30937B0120937A01CC
S1130710E0913601F0913701E85CFE4F84810E943C
S1130720260220917A0130917B0190E0982F88274E
S113073088279F70822B932B90937B0180937A015F
S1130740E0913601F0913701E85CFE4F83810E940D
S1130750260220917A0130917B0190E0982F88271E
S11307609295907F822B932B90937B0180937A01B7
S113077080913601909137010196909337018093CF
S113078036018091360190913701AA2797FDA095F3
S1130790BA2F84159505A605B7050CF463CF4091CF
S11307A09D018091320190913301A0913401B09167
S11307B0350150E060E070E084179507A607B7079D
S11307C094F4FC01E857FE4F2FEF21930196A11DED
S11307D0B11D40919D0150E060E070E084179507E1
S11307E0A607B70794F3A9E3B1E08C91833509F028
S11307F067C0EAE3F1E08081843509F061C0ABE3CE
S1130800B1E08C91813409F05BC0ECE3F1E08081CC
S1130810823509F055C0ADE3B1E08C91843509F01F
S11308204FC0109232011092330110923401109291
S1130830350180919D01882309F490C00BE411E0F7
S11308400F2EF8E8EF2EF1E0FF2EF02D422C512C64
S1130850682C792C1B830A83EA81FB813197808180
S11308600E942602B0E18B9F80011124EA81FB8162
S113087080810E9426028F70082BD7010D937D0181
S1130880D301C20140919D01EFEF4E1A5E0A6E0A38
S11308907E0A2A813B812E5F3F4F3B832A8350E0AF
S11308A060E070E084179507A607B707ACF2809361
S11308B0320190933301A0933401B09335014EC0BB
S11308C010923201109233011092340110923501CA
S11308D080919D01882309F441C00F2EF3E4EF2E8B
S11308E0F1E0FF2EF02D08E811E0422C512C682C89
S11308F0792CFB82EA82EA81FB81319780810E9414
S1130900260230E1839F70011124AA81BB818C915E
S11309100E9426028F70E82AF801E1928F01D30128
S1130920C20140919D01FFEF4F1A5F0A6F0A7F0ACF
S11309302A813B812E5F3F4F3B832A8350E060E056
S113094070E084179507A607B707ACF280933201CD
S113095090933301A0933401B09335010E94F307BF
S11309601092320110923301109234011092350129
S113097080917A0190917B011816190614F50E9452
S1130980F7078091320190913301A0913401B09125
S113099035010196A11DB11D80933201909333015D
S11309A0A0933401B093350140917A0150917B01B9
S11309B0662757FD6095762F84179507A607B70716
S11309C0F4F20E94C40736EA3A95F1F700C0959A0A
S11309D010923201109233011092340110923501B9
S11309E080919D01882349F145E84A95F1F700007B
S11309F0D501ED91FC91E857FE4F80810E94CB0711
S1130A008091320190913301A0913401B09135016C
S1130A100196A11DB11D8093320190933301A093DF
S1130A203401B093350140919D0150E060E070E0E5
S1130A3084179507A607B707BCF2109232011092EB
S1130A40330110923401109235010E94F007B6EA86
S1130A50BA95F1F700C00E94C907E6EAEA95F1F7F2
S1130A6000C00E94F50710927B0110927A01109247
S1130A709D015ECD80917901882321F02111FACF67
S1130A80322E56CD0F900F900F90DF91CF911F9182
S1130A900F91FF90EF90DF90CF90BF90AF909F9019
S1130AA08F907F906F905F904F903F902F9008951C
S1130AB01F93CF93DF93CDB7DEB727970FB6F89484
S1130AC0DEBF0FBECDBF182F909187019130B1F5D5
S1130AD00E94490740E1BE016F5F7F4F812F90E084
S1130AE00E94260840E1BE016D5F7F4F80917D0129
S1130AF090917E010E94260861E080E00E943F07F9
S1130B0086EF90E00E94620761E086E00E943F0762
S1130B10CE0103960E94620761E08CE00E943F07C9
S1130B208CEF90E00E94620761E08EE00E943F0734
S1130B30CE0101960E9462071092870127960FB694
S1130B40F894DEBF0FBECDBFDF91CF911F91089502
S1130B500F931F93CF9340917D0150917E0160913B
S1130B607F0170918001411551056105710551F4B2
S1130B7086B390919C01992329F091E09093870189
S1130B8010929C01009132011091330120913401A3
S1130B903091350140175107620773079CF44F5F8A
S1130BA05F4F6F4F7F4F40937D0150937E01609361
S1130BB07F017093800181E08093870180939C0181
S1130BC00E94B10700913201109133012091340148
S1130BD03091350140917D0150917E0160917F01FA
S1130BE07091800104171507260737070CF04EC0D3
S1130BF0411551056105710509F448C04150510979
S1130C006109710940937D0150937E0160937F01D6
S1130C107093800191E09093870190939C010F3F22
S1130C201F4F2105310541F4109232011092330116
S1130C301092340110923501939AE3EFF1E0319769
S1130C40F1F700C00000939840917D0150917E011E
S1130C5060917F017091800114161506160617061F
S1130C60ACF4C0E00E94B107CF5F0C2F10E020E08D
S1130C7030E040917D0150917E0160917F0170913F
S1130C808001041715072607370764F30E945805E7
S1130C90CF911F910F910895109232011092330158
S1130CA0109234011092350181E0809387010E94F3
S1130CB0A9070E94F3070E94C9070E94C40781EE96
S1130CC094E00197F1F700C0000010927D011092AA
S1130CD07E0110927F011092800181E080939C013B
S1130CE0809160008130F9F40E9492000E94C70054
S1130CF00E94640060E080E00E943F078FEF90E074
S1130D000E94620781E00E94FC0060917D01709165
S1130D107E0180917F01909180010E94A8058091BD
S1130D206000813009F30E94F00710927C01109258
S1130D30320110923301109234011092350181E096
S1130D4080939E0180936000089510929E011092FA
S1130D507C01C1E080917C018330B9F118F48823CF
S1130D6031F0FACF8430A1F18630A9F1F5CF0E9499
S1130D7060008CE00E9472070E94AB0780919E0184
S1130D80811118C060E00E943F078BE091E00E944F
S1130D9062076C2F80E00E943F078CE191E00E9483
S1130DA062072FEF84E39CE0215080409040E1F7FC
S1130DB000C000000E9403080E944907C0939E01DE
S1130DC00E943E0180937C01C5CF0E944C06C2CF95
S1130DD00E945102BFCF0E94FB01BCCFDE9A00C02B
S1130DE0DE980895CF93DF93D82F662311F0DC9A11
S1130DF001C0DC98DD988AB38F608ABBCBB3C07F17
S1130E008D2F82958F708C2B8BBB0E94EE06DF702A
S1130E10DC2BDBBB0E94EE06CF60CBBBDF91CF9116
S1130E200895882311F0DC9A01C0DC98DD9A8AB316
S1130E30807F8ABBDE9A00C099B3DE9800C0DE9A38
S1130E4000C089B39295907F8F70DE98892B0895A6
S1130E5080E00E9411078823DCF383E090E001978F
S1130E60F1F780E00E9411070895CF93C82F0E94E4
S1130E70280760E08C2F0E94F206CF91089561113B
S1130E8004C080580E943507089580540E94350795
S1130E90089581E00E9435070895CF93C82F0E94DA
S1130EA02807CA3049F4803410F480E401C080E09B
S1130EB080580E94350704C061E08C2F0E94F2061E
S1130EC0CF910895CF93DF93EC012196FC018081AB
S1130ED0882329F00E944D0789918111FBCFDF916E
S1130EE0CF910895CF93C82F8AB38F678ABBE0E36D
S1130EF0F3E73197F1F7D99AD89A0E94EE06E0EF1A
S1130F00F3E23197F1F70E94EE06E5E7F0E031975E
S1130F10F1F70E94EE06E5E7F0E03197F1F7D89893
S1130F200E94EE06E5E7F0E03197F1F788E20E94CF
S1130F30350788E00E9435070E94490786E00E9431
S1130F4035078C2F0E943507CF9108958FEF87BB0B
S1130F50089517BA0895D79A8D9A8E9A8B9A8C9A77
S1130F600895DF9886EA8A95F1F700C0DF9A96EA39
S1130F709A95F1F700C0DF9881EE94E00197F1F7BC
S1130F8000C0000086B308959698959808959498A3
S1130F900895949A0895CF93C82F969881E28A95DC
S1130FA0F1F700000E94C707C8BB0E94C90791E27D
S1130FB09A95F1F70000969ADF9889EF90E00197EF
S1130FC0F1F700C00000DF9A89EF90E00197F1F794
S1130FD000C00000DF98CF9108958D988E980895F1
S1130FE0969A959A089593980895939A0895DF98F8
S1130FF086EA8A95F1F700C0DF9A86EA8A95F1F7C6
S113100000C0DF98089510BC8FE289B9549A539AAE
S113101080B5866880BD80E492E4AFE0B0E0809360
S1131020A2019093A301A093A401B093A5010895F4
S11310305F9BFECF8CB108955D9BFECF8CB9089564
S1131040EE0FFF1F0590F491E02D0994BB274A3061
S113105031F4992322F4BDE2909581959F4F0C942D
S11310603208BB27FB015527AA27880F991FAA1FFF
S1131070A41710F0A41B83955051B9F7A05DAA33AF
S113108008F0A95DA193009779F7B111B19311927A
S1131090CB010C944B08DC01FC01672F7191772381
S11310A0E1F7329704C07C916D9370836291AE171F
S10D10B0BF07C8F30895F894FFCFBA
S11310BA01012053454C454354204F5054494F4E47
S11310CA5320003E4564697420454550524F4D20D3
S11310DA202020003E446F776E6C6F616420746F29
S11310EA20454550524F4D003E55706C6F61642047
S11310FA662E20454550524F4D003E4D656D6F7228
S113110A7920446566202020202020003E4D656D0C
S113111A2E2052656164202020202020003E4D6547
S113112A6D2E2053696D2E2020202020200020536C
S113113A696D756C6174696E672E2E2E004D454D6E
S113114A20446F776E00416464723A00443A004561
S113115A4550524F4D205669657700454550524FC8
S113116A4D2050524F472F53494D550020496E691F
S113117A7469616C697A6174696E672E2E2E000037
S9030000FC
